:020000040800F2
:10000000900F002001010008D91A0008D912000839
:10001000D51A0008450E00086B34000800000000E7
:10002000000000000000000000000000B9260008E9
:10003000D51000080000000041250008A12A000892
:100040001701000817010008170100081701000830
:100050001701000817010008170100081701000820
:100060001701000817010008170100081701000810
:100070001701000817010008170100081701000800
:1000800017010008170100081701000817010008F0
:1000900017010008170100081701000817010008E0
:1000A00017010008170100081701000817010008D0
:1000B000D92A0008512B0008170100081701000871
:1000C00017010008170100081701000817010008B0
:1000D0001701000817010008DD300008B1310008E1
:1000E000170100081701000817010008DFF80CD0FD
:1000F00000F002FC00480047655F0008900F0020F8
:1001000005480047FEE7FEE7FEE7FEE7FEE7FEE7FD
:10011000FEE7FEE7FEE7FEE7ED00000840EA010328
:100120009B0703D009E008C9121F08C0042AFAD2AD
:1001300003E011F8013B00F8013B521EF9D2704771
:10014000D2B201E000F8012B491EFBD27047002219
:10015000F6E710B513460A4604461946FFF7F0FFC6
:10016000204610BDF0B480EA0102D40F4200B2EB89
:10017000410F02D20246084611464A0042D0C30D42
:10018000DDB2C1F3C752AD1A202D35DAC1F3160125
:1001900041F4000204B15242C5F1200602FA06F110
:1001A0002A411044B3EBD05F23D0C4B1012DA0EBA2
:1001B000C35009DCF0BC4FF0004202EAC352DBB28C
:1001C00000F5000000F00DBB400000F1807000EB76
:1001D000C350A0F1807040EAD170490009E049089D
:1001E00041EAC071A0EBC35000F50000400800EBED
:1001F000C350F0BC00F0ECBA6142012202EB4101B5
:10020000001BF6E7F0BC704781F00041AAE780F0E0
:100210000040A7E780EA010210B502F00043400069
:1002200022D04A001FD0010E01EB1261C0F356002C
:10023000C2F3560240F4000042F40002A0FB022088
:1002400000047F39140400D0401C50EA124001D44D
:100250004000491EC2B20C0604EBD010401C4008FE
:10026000802A02D003E0002010BD20F00100002908
:1002700000DA0020184310BD30B480EA010202F019
:10028000004530F0004221F0004013D090B1C30D82
:10029000D40DC2F31601C0F31600E41A41F40001B4
:1002A00040F400027D34914201D3641C00E0490017
:1002B000002C02DA30BC002070474FF4000000230D
:1002C000914201D3891A034340084FEA4101F7D113
:1002D00051B1914202D14FF0004105E002D24FF0FE
:1002E000010101E06FF0010103EBC450284430BC70
:1002F00000F06EBA2DE9FE4F804681EA0300C00F80
:100300000C46009021F0004123F00045B8EB0200BC
:10031000A94105D24046214690461C460B4602465E
:1003200023F00040104347D0270DC7F30A00C3F362
:100330000A510290401A019040286BDAC3F313006F
:1003400040F4801B0098924620B10023D2EB030AB0
:1003500063EB0B0B01985946C0F14002504600F088
:1003600006FA06460D4650465946019A00F01EFA16
:1003700010EB08006141002487EA115284EAE77318
:100380001A4340D0009A62B3019A012A4FEA0752F9
:1003900015DC001B61EB02014FF0004202EA07523C
:1003A000CDE90042001C41F5801132462B4600F099
:1003B00055FA03B0BDE8F08F40462146F9E7001B2F
:1003C00061EB0201001C41F5801300185B4120180D
:1003D000A2F5001747EB030140EAD570B6196D414D
:1003E00011E06D084FEA360645EAC0754FEA07523C
:1003F000001B61EB0201001C41F5801149084FEA26
:1004000030000019514132462B4603B0BDE8F04F91
:1004100000F015BA0098012240000023D0EB020240
:1004200063EBE073009821464FEAE074B8EB0000FC
:1004300061EB0401E9E783F000435BE781F00041F1
:1004400058E72DE9FE4F81EA030404F0004421F04F
:10045000004100944FF0000B23F0004350EA0104E8
:100460005ED052EA03045BD0C3F30A54C1F30A55C9
:100470002C44A4F2F3340194A0FB0254C1F3130101
:1004800041F48011C3F3130343F4801301FB0244CE
:1004900000FB034E840A970A44EA815447EA8357D3
:1004A000A4FB076802958D0A05FB07854FEA932C8C
:1004B00004FB0C542705029D4FEA065847EA1637FD
:1004C000B5EB08056EEB070C870E920E47EA811715
:1004D00042EA8312A7FB0201B6EB0B0164EB0004B6
:1004E0002B0D43EA0C335E1844EB1C50DA465146A0
:1004F000E7FB0201C5F313044FEA0B3343EA14533D
:100500004FEA0432019C43EA0603A4F10C0402946E
:10051000009CCDE900B400F0A1F903B0BDE8F08F74
:1005200000200146F9E72DE9F04D81EA030404F0CB
:10053000004B21F0004514464FF0000A23F0004123
:1005400050EA050220D054EA01021DD0C5F30A5733
:100550000246C5F31303C1F31300C1F30A5640F476
:10056000801543F48013A7EB0608101BD64608F24B
:10057000FD3873EB050002D308F1010801E0921881
:100580005B41B8F1000F03DA00200146BDE8F08DB1
:1005900000204FF48011064684460EE0171B73EBD3
:1005A000050705D3121B63EB050306434CEA010C58
:1005B00049084FEA300092185B4150EA0107EDD13B
:1005C00052EA030012D082EA040083EA05010843DC
:1005D00005D0101BAB4106D20122002306E0002209
:1005E0004FF0004302E06FF0010253101AEB0600D7
:1005F0004CEB085110EB0A0041EB0B01BDE8F04D4C
:1006000000F01DB996230022114600F0EAB820F050
:100610000040C10DC0F3160040F400007F2901DA4C
:1006200000207047962903DCC1F19601C84070474D
:10063000963988407047C1F30A5210B5C1F31301CF
:1006400040F2FF3341F480119A4201DA002010BDDC
:1006500040F233439A42A2F2334203DC524200F0AA
:1006600095F810BD904010BD00F0004230F0004001
:100670000AD0C10D01F56071C0F3160042EA0151C4
:10068000C208400711437047002001467047000030
:1006900030B5041E71F1000404DB4FF00044404209
:1006A00064EB0101141E73F1000405DB1C464FF0DE
:1006B0000043524263EB0403994208BF904230BDAD
:1006C00001F0004330B421F0004150EA010206D0AD
:1006D0000A0DA2F56072C1F31301002A02DC30BCDE
:1006E00000207047440F44EAC104C100E01830BC48
:1006F00000EBC25000F06CB8002801DBC0F10040F4
:10070000002901DBC1F10041814270472DE9F05F12
:100710000546002092469B46884606468146402470
:100720001BE0284641464746224600F02FF8534634
:100730005A46C01A914110D311461846224600F07D
:1007400016F82D1A67EB01084F46224601200021BA
:1007500000F00DF817EB00094E41201EA4F1010432
:10076000DFDC484631462A464346BDE8F09F202A52
:1007700004DB203A00FA02F1002070479140C2F1F8
:10078000200320FA03F3194390407047202A04DB2A
:10079000203A21FA02F00021704721FA02F3D040FA
:1007A000C2F120029140084319467047202A06DB17
:1007B000CB17203A41FA02F043EAE07306E041FA2F
:1007C00002F3D040C2F1200291400843194670471D
:1007D0000029A8BF7047401C490008BF20F0010055
:1007E000704710B4B0FA80FC00FA0CF050EA010433
:1007F00004BF10BC704749B1CCF1200421FA04F4C5
:1008000011FA0CF118BF012121430843A3EB0C019D
:10081000CB1D4FEA00614FEA102042BF002010BC00
:10082000704700EBC35010440029A4BF10BC7047B0
:10083000401C490008BF20F0010010BC704710B5F3
:10084000141E73F1000408DA401C41F100019218F3
:100850005B411A4301D120F0010010BD2DE9F04D9C
:1008600092469B4611B1B1FA81F202E0B0FA80F2F1
:1008700020329046FFF77BFF04460F4640EA0A000D
:1008800041EA0B0153465A46084313D0114653EA36
:10089000010019D0C8F140025046FFF777FF054626
:1008A0000E46504659464246FFF761FF084305D0C1
:1008B000012004E020463946BDE8F08D00200543C4
:1008C00046EAE0762C4337430A986305E40AA0EB36
:1008D00008000022FD0A44EA47540A3002D50020ED
:1008E0000146E9E7010510196941DDE908450019EC
:1008F0006941BDE8F04DA2E7064C074D06E0E0680F
:1009000040F0010394E8070098471034AC42F6D356
:10091000FFF7F0FB188C0008388C000821B18268C2
:1009200042F00102826003E0826822F001028260EC
:100930007047014600208A6802F004020AB10120D3
:1009400000E0002070470146C86C80B27047024644
:10095000002013680B400BB1012000E0002070471D
:10096000014600208A6802F008020AB1012000E076
:100970000020704770B504460D462B4601222146E3
:10098000084800F039F80121064800F096F800BF49
:1009900002210448FFF7DBFF0028F9D00148FFF7E8
:1009A000D2FF70BD0024014030B502460020002374
:1009B00050680F4C20400D790C6844EA0524204310
:1009C000506090680B4C2040D1E902542C434D7983
:1009D00044EA450420439060D06A20F470000C7C07
:1009E000641EE4B2234340EA0350D06230BD0000ED
:1009F000FFFEF0FFFDF7F1FFF0B504460D460020C5
:100A00000021092D11DDE068A5F10A0606EB460775
:100A1000072606FA07F18843A5F10A0606EB460603
:100A200003FA06F10843E0600CE0206905EB450796
:100A3000072606FA07F1884305EB450603FA06F197
:100A400008432061072A0FDA606B561E06EB860703
:100A50001F2606FA07F18843561E06EB860605FA9E
:100A600006F10843606322E00D2A0FDA206BD61FDF
:100A700006EB86071F2606FA07F18843D61F06EB0A
:100A8000860605FA06F10843206310E0E06AA2F149
:100A90000D0606EB86071F2606FA07F18843A2F12A
:100AA0000D0606EB860605FA06F10843E062F0BD86
:100AB000816841F008018160704721B1826842F489
:100AC000A002826003E0826822F4A0028260704784
:100AD000816841F0040181607047000000B585B075
:100AE0000121480201F04AFD4FF4004001F02AFDC7
:100AF0000020009003904FF46020029000208DF8B9
:100B000005008DF8040001208DF8100069460D489D
:100B1000FFF74AFF01210B48FFF700FF0948FFF7E5
:100B2000C7FF00BF0748FFF71BFF0128FAD00548A1
:100B3000FFF7CEFF00BF0348FFF7FBFE0128FAD006
:100B400005B000BD002401400948407809494978B2
:100B5000884205DC0648007806490978884203DDAA
:100B600001200549487002E00020034948707047A1
:100B700070000020800000200800002008B501213E
:100B8000102001F0FBFC10208DF803004002ADF8AE
:100B9000000003208DF802006946044800F0B6FA10
:100BA0004FF40051014800F08EFB08BD00100140D9
:100BB00010B500224FF40051014800F088FB10BD31
:100BC0000010014010B501225103024800F07FFBE4
:100BD00010BD00000010014010B500200A49086057
:100BE00001F058FD00200949C1F89401022002F0EB
:100BF00021FF012004490860022002F01BFF0020B1
:100C00000249C1F8900110BD90012142000021422B
:100C100010B500200A49086001F03CFD0120094997
:100C2000C1F89401022002F005FF01200449086088
:100C3000022002F0FFFE00200249C1F8900110BD21
:100C4000900121420000214270B50546002401F0C8
:100C50000FFD002616E000200F490860022002F078
:100C6000E9FE01200D49C1F890016006040E0A4812
:100C70007C38006808B1601CC4B2012002F0DAFEC2
:100C8000701CC6B2082EE6DB15B9FFF7C1FF01E004
:100C9000FFF7A2FF204670BD9001214200002142D3
:100CA00070B5044601F0F6FC0020134908600025E9
:100CB0001EE0E00920B101200F49091D086003E092
:100CC00000200D49091D08606006040E022002F094
:100CD000B1FE012008490860022002F0ABFE0020AE
:100CE0000649C1F89001022002F0A4FE681CC5B2BA
:100CF000082DDEDB70BD0000900121420000214282
:100D000010B501F0C7FC0120094908600949C1F884
:100D10009001042002F08EFE0020054908600420A6
:100D200002F088FE00200349C1F8900110BD0000C8
:100D3000940121420000214210B501F0ABFC0020DB
:100D4000084908600849C1F89401042002F072FEC5
:100D50000120044908600449C1F89401042002F00C
:100D600069FE10BD900121420000214210B500240F
:100D700001F07EFC01200E49086002F05BFE0120BC
:100D80000C49C1F8900102F055FE07E0601CC4B2A6
:100D9000FA2C03DDFFF7D0FF012010BD0448803896
:100DA00000680028F2D10249091F086000BFF4E77B
:100DB000940121420000214208B50121042001F0E4
:100DC000DDFB3020ADF8000010208DF8030003207B
:100DD0008DF802006946084800F098F9302106486D
:100DE00000F073FA012002F0ADFD072002F0AAFD29
:100DF000112002F0A7FD08BD0008014008B501213F
:100E0000082001F0BBFB0121084601F0B7FB0121DE
:100E10000A4800F007FA0820ADF8000003208DF81A
:100E2000020010208DF803006946054800F06EF9B5
:100E30000821034800F047FA08BD00000002300016
:100E4000000C014000BFFEE706490978012908D1DE
:100E50000021044A117004498A78497802EB012183
:100E600001807047370000203100002010B5214874
:100E7000007810B100F096FB01E000F089FB1D48FE
:100E8000407820B102211C4800F01FFA03E0022143
:100E9000194800F018FA1748807820B10821164840
:100EA00000F013FA03E00821134800F00CFA11488F
:100EB000C07810B1FFF786FE01E0FFF779FE0D481C
:100EC00040790C490979884213D00A484079094988
:100ED00008710846407930B101235A220021184692
:100EE00000F0C5FB05E001235A220021084600F06E
:100EF000BEFB10BD08000020000C014010B500240E
:100F0000002000F049F804E0601CC4B2012002F0A7
:100F100091FD4FF400610F4800F0CCF908B1642C4A
:100F2000F2DB642C01DB012010BD002404E0601C16
:100F3000C4B2012002F07EFD4FF40061054800F0CC
:100F4000B9F908B9642CF2DB642C01DB0120EBE772
:100F50000020E9E70008014008B50121042001F064
:100F60000DFB4FF40060ADF8000010208DF8030079
:100F700003208DF802006946064800F0C7F84FF4D8
:100F80000061044800F0A1F900F08CF8FFF7B6FF0B
:100F900008BD00000008014038B5044654B14FF4C4
:100FA0000060ADF8000003208DF8020010208DF8DD
:100FB000030006E04FF40060ADF8000004208DF857
:100FC00003006946014800F0A1F838BD000801405F
:100FD00010B5002404E0601CC4B2012002F02AFD18
:100FE0004FF40061104800F065F908B1642CF2DBA1
:100FF000002404E0601CC4B2012002F01BFD4FF489
:101000000061094800F056F908B9642CF2DB282089
:1010100002F010FD4FF40061034800F04BF908B1F5
:10102000012010BD0020FCE70008014070B500243D
:10103000002506E06006040EFFF7CAFF0443681CA3
:10104000C5B2082DF6DB204670BD7CB505460E46C0
:1010500000F028F8FFF752FFF8B9002405E0FFF789
:10106000E5FF0DF80400601CC4B2052CF7DB9DF809
:1010700000009DF8011008449DF8021008449DF8F6
:10108000031008449DF80410884208D19DF8000020
:1010900030709DF80200287001E001207CBD002026
:1010A000FCE7000010B50120FFF776FF4FF4006168
:1010B000074800F008F9142002F09EFC4FF400618C
:1010C000034800F002F90D2002F0B4FC10BD00004E
:1010D000000801407047000008B50121082001F018
:1010E0004DFA0220ADF8000003208DF80200102018
:1010F0008DF803006946044800F008F80221024810
:1011000000F0E1F808BD0000000C01402DE9F041BD
:10111000024600250026002000230024002791F825
:1011200003C00CF00F0591F803C00CF0100CBCF1DB
:10113000000F03D091F802C04CEA050591F800C0F9
:10114000BCF1000F31D0146800202BE04FF0010CEF
:101150000CFA00F3B1F800C00CEA03069E4220D15D
:1011600083004FF00F0C0CFA03F7BC4305FA03FCA5
:101170004CEA040491F803C0BCF1280F06D14FF0EB
:10118000010C0CFA00FCC2F814C00AE091F803C08C
:10119000BCF1480F05D14FF0010C0CFA00FCC2F86D
:1011A00010C0401C0828D1D31460B1F800C0BCF1B5
:1011B000FF0F34DD546800202EE000F1080C4FF0E2
:1011C000010808FA0CF3B1F800C00CEA03069E42CD
:1011D00021D183004FF00F0C0CFA03F7BC4305FA42
:1011E00003FC4CEA040491F803C0BCF1280F05D1BC
:1011F00000F1080C08FA0CF8C2F8148091F803C04A
:10120000BCF1480F07D100F1080C4FF0010808FAB3
:101210000CF8C2F81080401C0828CED35460BDE8FA
:10122000F0810000F0B50A460023002400210025CB
:1012300000F00046B6F1004F02D11D4EF16901E009
:101240001B4E7168C0F3034583B200F44016B6F537
:10125000401F08D121F07061154E766826F0706647
:10126000134F7E6012E000F48016B6F5801F06D1A1
:10127000032606FA05F4A14341F0706106E0460D2D
:10128000360103FA06F6B14341F0706122B1460D12
:10129000360103FA06F6314300F00046B6F1004F7E
:1012A00002D1034EF16101E0014E7160F0BD00001A
:1012B000000001400246002093680B400BB1012062
:1012C00000E00020704741617047016170470AB13A
:1012D000016100E04161704700BFFEE7032000BFED
:1012E000011EA0F10102D0B2FAD1704708B5012168
:1012F000082001F043F948208DF803004FF47040B6
:10130000ADF8000003208DF8020069460148FFF7A0
:10131000FDFE08BD000C014010B54FF480517F4820
:10132000FFF7C8FFB8B100207D4908707D490880EB
:101330007D48007828B100207B49087001207B4956
:1013400008707B48007870B30020794908700B2042
:101350007649087027E072480078A0B97148008883
:10136000401C70490880084600880A281BDD0020C0
:10137000088001206C49087000206D490870012028
:10138000674908700FE067480088401C654908807D
:1013900008460088B0F57A7F05DD002062490870B4
:1013A0000120634908704FF400515C48FFF782FF49
:1013B000B8B100205F4908705F4908805F48007835
:1013C00028B100205D4908700220584908705C4827
:1013D000007870B300205A49087002205349087001
:1013E00027E054480078A0B953480088401C52496F
:1013F0000880084600880A281BDD0020088001209C
:101400004E49087000204E49087001204949087073
:101410000FE049480088401C47490880084600887A
:10142000B0F57A7F05DD0020444908700120444969
:1014300008704FF480413948FFF73CFF28B1002085
:1014400040490870404908802DE03E48007888B93E
:101450003D480088401C3C490880084600880A280E
:1014600021DD002008800320304908700120354923
:10147000087018E034480088B0F5FA7F05DA324881
:101480000088401C304908800DE030480088401C2E
:101490002E49088008460088052804DD00200880C1
:1014A0000320224908704FF400411C48FFF702FF57
:1014B00028B1002026490870264908802DE02448DC
:1014C000007888B923480088401C224908800846D3
:1014D00000880A2821DD00200880042013490870B4
:1014E00001201B49087018E01A480088B0F5FA7FFF
:1014F00005DA18480088401C164908800DE0164897
:101500000088401C1449088008460088052804DD2E
:101510000020088004200549087010BD000C01401F
:101520001B000020180000201A00002030000020BE
:101530001C000020210000201E00002020000020B0
:101540002200002029000020240000202600002086
:101550002F0000202A0000202C00002008B50121C7
:10156000082001F00BF810208DF803000120ADF8E1
:10157000000003208DF8020069460448FFF7C6FD0D
:1015800001210248FFF79FFE08BD0000000C01404A
:1015900010B5002201210248FFF799FE10BD00009E
:1015A000000C014010B5012211460248FFF78FFEE2
:1015B00010BD0000000C01402DE9F04106460C462C
:1015C0001746002E28D024B1012C0DD0022C21D199
:1015D00015E0012505E03946284600F0F1F8681CC1
:1015E000C5B2092DF7DB16E0012505E0394628468E
:1015F00000F07EF8681CC5B2052DF7DB0BE0012575
:1016000005E03946284600F099F9681CC5B2052D59
:10161000F7DB00E000BF28E024B1012C0DD0022C44
:1016200021D115E0082505E03946284600F0C8F824
:10163000681EC5B2002DF7DC16E0042505E039462A
:10164000284600F055F8681EC5B2002DF7DC0BE007
:10165000042505E03946284600F070F9681EC5B239
:10166000002DF7DC00E000BF00BFBDE8F0812DE9F0
:10167000F0410746884614461D46002606E02A46E5
:1016800041463846FFF798FF701C86B2A0012D2115
:1016900090FBF1F0B042F2DCBDE8F08108B5012129
:1016A000182000F06BFF4FF44070ADF800000320ED
:1016B0008DF8020010208DF8030069460A48FFF7F4
:1016C00025FD4FF41040ADF8000069460748FFF7CC
:1016D0001DFD4FF440710448FFF7F5FD4FF4104134
:1016E0000248FFF7F0FD08BD000C01400008014072
:1016F00070B504460D46052C59D2DFE804F003040A
:10170000192E430053E04FF480712B48FFF7DDFDA5
:101710004FF400712848FFF7D6FD4FF48051274859
:10172000FFF7D1FD4FF400412448FFF7CCFD3EE028
:101730004FF480712048FFF7C6FD4FF400711E483A
:10174000FFF7C3FD4FF480511C48FFF7BCFD4FF479
:1017500000411A48FFF7B7FD29E04FF480711648A1
:10176000FFF7B1FD4FF400711348FFF7ACFD4FF4E4
:1017700080511248FFF7A9FD4FF400410F48FFF7D1
:10178000A2FD14E04FF480710B48FFF79CFD4FF46D
:1017900000710948FFF797FD4FF480510748FFF7A4
:1017A00092FD4FF400410548FFF78FFD00BF00BFD9
:1017B000284602F021F970BD000C014000080140EC
:1017C00070B504460D46092C06D2DFE804F0050684
:1017D0001B30455A6F849900A7E04FF4807155483B
:1017E000FFF773FD4FF400715248FFF76CFD4FF4A3
:1017F00080515148FFF767FD4FF400414E48FFF715
:1018000062FD92E04FF480714A48FFF75EFD4FF4AD
:1018100000714848FFF759FD4FF480514648FFF7E3
:1018200052FD4FF400414448FFF74DFD7DE04FF479
:1018300080714048FFF747FD4FF400713D48FFF7C6
:1018400044FD4FF480513C48FFF73DFD4FF400410B
:101850003948FFF738FD68E04FF480713548FFF7ED
:1018600032FD4FF400713348FFF72FFD4FF48051E4
:101870003148FFF72AFD4FF400412F48FFF723FDC1
:1018800053E04FF480712B48FFF71DFD4FF40071BA
:101890002848FFF718FD4FF480512748FFF715FD42
:1018A0004FF400412448FFF70EFD3EE04FF48071F5
:1018B0002048FFF708FD4FF400711E48FFF703FDB5
:1018C0004FF480511C48FFF700FD4FF400411A48C7
:1018D000FFF7FBFC29E04FF480711648FFF7F3FC9B
:1018E0004FF400711348FFF7EEFC4FF4805112489B
:1018F000FFF7E9FC4FF400410F48FFF7E6FC14E066
:101900004FF480710B48FFF7E0FC4FF40071094879
:10191000FFF7D9FC4FF480510748FFF7D4FC4FF490
:1019200000410548FFF7D1FC00BF00BF284602F088
:1019300063F870BD000C01400008014070B504461A
:101940000D46052C59D2DFE804F00304192E43009C
:1019500053E04FF480712B48FFF7B7FC4FF4007150
:101960002848FFF7B0FC4FF480512748FFF7ABFC45
:101970004FF400412448FFF7A8FC3EE04FF480718B
:101980002048FFF7A2FC4FF400711E48FFF79DFCB2
:101990004FF480511C48FFF796FC4FF400411A4861
:1019A000FFF791FC29E04FF480711648FFF78BFC9C
:1019B0004FF400711348FFF788FC4FF48051124830
:1019C000FFF783FC4FF400410F48FFF77CFC14E065
:1019D0004FF480710B48FFF776FC4FF40071094813
:1019E000FFF771FC4FF480510748FFF76EFC4FF48E
:1019F00000410548FFF769FC00BF00BF284601F021
:101A0000FBFF70BD000C014000080140012806D01A
:101A1000022813D0032820D004283CD12CE01F49F1
:101A20000978032902D101211D4A11701B49097847
:101A3000042902D100211A4A11702DE017490978B2
:101A4000032902D10121164A517014490978042949
:101A500002D10021124A51701EE010490978032971
:101A600002D101210E4A91700C490978042902D152
:101A700000210B4A91700FE008490978032902D12F
:101A80000121074A517105490978042902D1002131
:101A9000034A517100E000BF00BF704730000020D2
:101AA0000800002008B50A48007840B10120102342
:101AB000182200210090602000F080FA07E0012049
:101AC00010231A2200210090602000F077FA08BD50
:101AD0000800002000BFFEE77047000070B500213D
:101AE00000230F22C47804B3154C246804F4E06486
:101AF000C4F5E064210AC1F10403CA40447804FA41
:101B000003F184781440214309010E4C0678A15555
:101B1000047804F01F050124AC4005786D11AD0078
:101B200005F1E025C5F8004109E0047804F01F053F
:101B30000124AC40044D0678761145F8264070BD6E
:101B40000CED00E000E400E080E100E00249014328
:101B5000024A1160704700000000FA050CED00E039
:101B600070B500240CE0002506E00020074901EBD9
:101B7000C5010855681CC5B2802DF6DB601CC4B2D7
:101B8000082CF0DB00F020F970BD00008C00002074
:101B9000F0B514460B46CF1701EB5777C7F3C702D2
:101BA000CF1701EB5777FF10A1EBC707FEB2012358
:101BB000B340DDB24CB1134B03EBC0039B5C2B4332
:101BC000104F07EBC007BB541AE00E4B03EBC003EA
:101BD0009B5CDB430B4F07EBC007BB54094B03EB8C
:101BE000C0039B5C2B43074F07EBC007BB54054B5F
:101BF00003EBC0039B5CDB43024F07EBC007BB5406
:101C0000F0BD00008C00002010B580210A48FFF7CD
:101C10005CFB40210848FFF758FBFFF75FFB802182
:101C20000548FFF750FBFFF759FB40210248FFF73B
:101C30004AFBFFF753FB10BD000C014010B580219B
:101C40000648FFF740FB40210448FFF73EFBFFF743
:101C500045FB80210148FFF738FB10BD000C014017
:101C600010B580210848FFF730FBFFF737FB402114
:101C70000548FFF72AFBFFF731FB40210248FFF739
:101C800022FBFFF72BFB10BD000C014008B5012122
:101C9000082000F073FC4020ADF8000014208DF8FF
:101CA000030003208DF8020069464048FFF72EFA32
:101CB00040213E48FFF709FB8020ADF8000069464F
:101CC0003A48FFF723FA80213848FFF7FEFAC82088
:101CD00001F092FE0021AE2000F063FA00210846D8
:101CE00000F05FFA0021102000F05BFA0021402094
:101CF00000F057FA0021812000F053FA0021CF2094
:101D000000F04FFA0021A12000F04BFA0021C8207A
:101D100000F047FA0021A62000F043FA0021A82095
:101D200000F03FFA00213F2000F03BFA0021D320D1
:101D300000F037FA0021084600F033FA0021D520E0
:101D400000F02FFA0021802000F02BFA0021D9208A
:101D500000F027FA0021F12000F023FA0021DA2018
:101D600000F01FFA0021122000F01BFA0021DB20F6
:101D700000F017FA0021302000F013FA0021202093
:101D800000F00FFA0021022000F00BFA00218D2054
:101D900000F007FA0021142000F003FAFFF7E0FE3C
:101DA0000021AF2000F0FDF908BD0000000C01404B
:101DB00010B50246012000E050430B1EA1F10104C2
:101DC000E1B2F9D110BD000070B500242BE004F1A0
:101DD000B001C8B2002100F0E4F90021084600F08B
:101DE000E0F90021102000F0DCF9FFF70DFF78206A
:101DF00000F01EF8FFF734FF402000F019F8FFF75D
:101E00002FFF002509E0094901EBC501085D00F03D
:101E10000FF8FFF725FF681CC5B2802DF3DBFFF735
:101E20000DFF601CC4B2082CD1DB70BD8C000020FB
:101E300070B5044600251BE004F0800020B180212D
:101E40000D48FFF742FA03E080210B48FFF73BFA09
:101E5000FFF744FA40210848FFF737FAFFF73EFA48
:101E600040210548FFF72FFA6006040E681CC5B232
:101E7000082DE1DB70BD0000000C01402DE9FE4F94
:101E80000746884692461C460197CDF80080082CEC
:101E900002D14FF006091FE02046E31704EB53730D
:101EA000DB1021464FEAE47C04EB5C7C4FEAEC0C4F
:101EB000A4EBCC0CBCF1000F02D04FF0010C01E000
:101EC0004FF0000C6344224604EBD27C4FEA6C0CCA
:101ED00003FB0CF303F0FF09AAF12000C6B20025B2
:101EE0005EE0082C07D106EB4600304901EB4000CC
:101EF00010F805B01DE00C2C07D106EB46002C496C
:101F000001EB800010F805B013E0102C05D1294832
:101F100000EB061010F805B00BE0182C07D106EB0B
:101F2000C600254901EB800010F805B001E0BDE8CE
:101F3000FE8F002002901CE00BF0010028B141460A
:101F400038460C9AFFF724FE09E00C9808B90120E6
:101F500000E00020024641463846FFF719FE4FEAEE
:101F60006B0B08F1010000F0FF080298401CC0B2A2
:101F7000029002980828DFDB781CC7B2082C0BD02F
:101F800004EBD4714A100199791A8A4204D1019F55
:101F900000980830C0B20090DDF80080681CC5B21F
:101FA0004D459EDBFFF710FF00BFC0E768640008E7
:101FB00090660008046B0008F47000082DE9FC4FDF
:101FC0000746884616461C46BB46CDF80480204688
:101FD000E21704EB5272D2102146E31704EB53735D
:101FE000DB10A4EBC3030BB1012300E000231A4470
:101FF000624392B20092002555E0102C05D12C4886
:1020000000EB861010F805A01BE0182C07D106EB9A
:10201000C600284901EBC00010F805A011E0202CF3
:1020200005D1254800EBC61010F805A009E0402CAA
:1020300005D1224800EB462010F805A001E0BDE8DC
:10204000FC8F4FF000091CE00AF0010028B1414666
:1020500038460B9AFFF79CFD09E00B9808B9012060
:1020600000E00020024641463846FFF791FD4FEA66
:102070006A0A08F1010000F0FF0809F1010000F010
:10208000FF09B9F1080FDFDB781CC7B2A7EB0B0023
:10209000A04204D15F4601980830C0B20190DDF83B
:1020A0000480681C85B200988542A6DB00BFC6E7A5
:1020B000507E00085089000898890008188A000896
:1020C0002DE9FF4F83B0064691461F46DDE9104AD1
:1020D0004FF0000B082C01D14FF0020B002532E02D
:1020E000781B401EC1B20A20FFF762FEB9FBF0F078
:1020F0000A21B0FBF1F201FB1208B8F1000F0FD179
:1021000004EBD4710BEB610101FB0561C8B22346FE
:102110003022CDF800A002940499FFF7AFFE10E042
:1021200004EBD4710BEB610101FB0561C8B208F14E
:102130003001CAB22346CDF800A002940499FFF7FB
:102140009DFE681CC5B2BD42CADBFFF73DFE07B06D
:10215000BDE8F08F2DE9F84306460F4614461D46AC
:10216000DDF8208013E0CDF8008022782B46394638
:102170003046FFF783FE082D02D1B01DC6B205E040
:10218000284605EBD07106EB6101CEB2641C2078C5
:10219000202802DB20787E28E5DDFFF715FEBDE86C
:1021A000F88370B505460C46FFF72EFD7820FFF743
:1021B0003FFEFFF755FD1CB14020FFF739FE02E05E
:1021C0000020FFF735FEFFF74BFD2846FFF730FEF6
:1021D000FFF746FDFFF732FD70BD08B50120102363
:1021E0001C22002100900846FFF7E8FE0120102382
:1021F0001D22002100901846FFF7E0FE0120102369
:102200000022114600902020FFF7D8FE0120102365
:102210000222002100903020FFF7D0FE0120102381
:102220003A22002100904020FFF728FEFFF7CCFD66
:1022300008BD08B5012010230322002100900846A4
:10224000FFF7BCFE01201023042200210090184655
:10225000FFF7B4FE0120102305220021009020206A
:10226000FFF7ACFE01201023022200210090302055
:10227000FFF7A4FE012010233A2200210090402005
:10228000FFF7FCFDFFF7A0FD08BD38B50446012CA3
:102290001FD110233E22002100900846FFF7EEFDDB
:1022A000012010232022194600900020FFF7E6FDB0
:1022B000012010232022114600900020FFF7DEFDB0
:1022C000012010232022302100900020FFF7D6FDAE
:1022D00000E000BF00BF38BD08B501201023122266
:1022E000002100901846FFF769FE012010231322F9
:1022F000002100902020FFF761FE012010233A22E8
:10230000002100904020FFF7B9FD08BD38B5044614
:10231000012C02D0022C42D120E0012010233E22C9
:10232000002100900846FFF7A9FD0120102320227C
:10233000194600900020FFF7A1FD01201023202264
:10234000114600900020FFF799FD01201023202264
:10235000302100900020FFF791FD21E001201023A3
:102360002022002100900846FFF788FD012010235D
:102370003E22194600900020FFF780FD0120102327
:102380002022114600900020FFF778FD0120102345
:102390002022302100900020FFF770FD00E000BFF8
:1023A00000BF38BD08B5012010230022114600905F
:1023B0001846FFF703FE012010230222002100909F
:1023C0002020FFF7FBFD012010231A46002100907A
:1023D0003020FFF7F3FD012010231122002100908F
:1023E0004020FFF7EBFD012010233A22002100904E
:1023F0005020FFF743FD08BD08B5012010230FA2B0
:10240000202100901846FFF7A5FE012010232B2263
:10241000202100900846FFF7D1FD012010232A2239
:10242000202100903020FFF7C9FD012010233A221F
:10243000202100905020FFF721FD08BD50480000EA
:1024400010B505210120FEF795FA10BD2DE9F05FCA
:102450004FF0000A00240EE0FFF7F2FF0646FEF7F9
:10246000D1F805465146FDF77DFE8246052001F074
:10247000C3FA601CC4B20A2CEEDB1E495046FDF7BD
:10248000FBFE82465046FEF7EFF8804600221A4BCC
:10249000FEF749F806464FF06632184BFDF7D1FFBC
:1024A0000446FEF70DF983465846FEF7DDF806466A
:1024B000134A144BFDF7C5FF0446134A134BFDF7AF
:1024C00019FF8046FEF7FCF883465846FEF7CCF825
:1024D000044600220E4BFEF7DBF801D2DFF834B0E1
:1024E00000215846FEF708F901D24FF0000B58467C
:1024F000BDE8F09F000020410000B04066660A4041
:1025000087A757CA320417C08195438B6CA7304008
:1025100000002C400000604108B50121042000F0BB
:102520002DF80220ADF8000000208DF80300694668
:102530000248FEF7EBFDFEF7D1FA08BD00080140A6
:102540007047000001460020034A506820F44040D4
:1025500008435060704700000010024029B1064A4D
:10256000D2690243044BDA6104E0034AD269824330
:10257000014BDA61704700000010024029B1064AA1
:1025800092690243044B9A6104E0034A92698243D0
:10259000014B9A61704700000010024030B50021E5
:1025A0000022002400232D4D6D6805F00C0121B19F
:1025B000042905D0082923D105E0294D056022E032
:1025C000274D05601FE0254D6D6805F47012234D01
:1025D0006D6805F48034022505EB92421CB9214D4B
:1025E000554305600BE01D4D6D6805F400351DB1C8
:1025F0001C4D5543056002E0194D5543056002E04E
:10260000174D056000BF00BF144D6D6805F0F00167
:102610000909154D6B5C0568DD4045600F4D6D681F
:1026200005F4E061090A104D6B5C4568DD4085608A
:102630000A4D6D6805F46051C90A0B4D6B5C456825
:10264000DD40C560054D6D6805F44041890B074DBF
:102650006B5CC568B5FBF3F5056130BD0010024049
:1026600000127A0000093D003E0000204E000020CC
:1026700008B52020ADF8000003208DF802004820A6
:102680008DF8030069460248FEF740FD08BD0000D2
:102690000008014008B52020ADF8000003208DF8A7
:1026A000020010208DF8030069460248FEF72EFD57
:1026B00008BD0000000801407047000008B54FF455
:1026C00080413548FEF7F6FD78BB142001F094F9FF
:1026D0004FF480413048FEF7EDFD00285AD101202B
:1026E00010232322194600902020FFF767FC0120C9
:1026F00010232422194600903020FFF75FFC0120B0
:1027000010232722194600904020FFF757FC012094
:1027100010232822194600905020FFF74FFC01207B
:1027200003F0DCFAFFF750FB34E0FFE74FF4004121
:102730001948FEF7BFFD68BB142001F05DF94FF4A6
:1027400000411548FEF7B6FD20BB012010232522CD
:10275000194600902020FFF731FC0120102326228B
:10276000194600903020FFF729FC01201023272272
:10277000194600904020FFF721FC01201023282259
:10278000194600905020FFF719FC022003F0A6FA2A
:10279000FFF71AFB08BD0000000C01407CB528497A
:1027A000C8682849FDF736FD0546FDF730FFC4B27D
:1027B00001201021CDE90010214842780223002198
:1027C0005A20FFF77DFC01201021CDE900101C48A4
:1027D000027802235A20FFF773FC1949C868FDF7F5
:1027E00016FF05460120102103462A46CDE90010B8
:1027F00020215A20FFF764FC0120102312A220217F
:1028000000906220FFF7A6FC0A2094FBF0F100FB89
:1028100011450120102103462A46CDE90010202150
:102820006A20FFF74DFC01201021CDE9001004487B
:102830008279022330215A20FFF742FC7CBD000040
:1028400070000020000020412E0000001CB5012077
:102850001021CDE9001004488288042300215A2069
:10286000FFF72EFC1CBD00007000002010B50A49C7
:10287000481CFEF7EAFBFFF7E9FD0749C86001F0D5
:1028800048F80549888000F031FA0349887101F160
:102890000800FEF7D9FA10BD7000002010B50B48F3
:1028A000007802280FD100200849087008480078F5
:1028B000401C0749087008460078022801DD012005
:1028C0000870FFF74DF90248007810BD3000002075
:1028D000140000200A48007802280DD10020084981
:1028E000087008480078401C0649087008460078BF
:1028F000042801DD012008700248007870470000BC
:10290000300000201500002010B50F480078022884
:1029100017D100200C4908700C480078401C0B4966
:10292000087008460078052802D1FFF719F908E079
:1029300006480078072804DDFFF712F90120034953
:1029400008700248007810BD3000002016000020FA
:1029500010B500F001F810BD0CB5002001900090FA
:102960003348006840F480303149086000BF304887
:10297000006800F4003000900198401C019000981D
:1029800018B90198B0F5A06FF1D12948006800F49A
:10299000003010B10120009001E00020009000986C
:1029A000012843D12348006840F010002149086005
:1029B0000846006820F0030008600846006840F000
:1029C000020008601A484068194948600846406893
:1029D00048600846406840F48060486008464068A7
:1029E00020F47C1048600846406840F4E8104860D5
:1029F0000846006840F08070086000BF0C4800681E
:102A000000F000700028F9D00948406820F0030069
:102A1000074948600846406840F00200486000BF2F
:102A20000348406800F00C000828F9D10CBD0000F4
:102A300000100240002002401CB501201021CDE909
:102A4000001004484278022300215A20FFF738FB87
:102A50001CBD0000800000201CB501201021CDE924
:102A6000001004480289042300215A20FFF728FBA4
:102A70001CBD000080000020042808D14FF0E02198
:102A8000096941F004014FF0E022116107E04FF0C5
:102A9000E021096921F004014FF0E0221161704743
:102AA0007047000010B50948006840F00100074970
:102AB0000860084640680649084004494860FFF736
:102AC00047FF4FF000600349086010BD001002404E
:102AD0000000FFF808ED00E010B50121880700F0C4
:102AE00093F828B1FEF718FC0121880700F07DF863
:102AF00010BD7FB504460D4601210846FFF72EFDA7
:102B00000020ADF80A00ADF80600ADF80850ADF8A9
:102B100004408DF80C0001A94FF0804000F08EF8C1
:102B200001221146900700F080F81C208DF800006B
:102B300001208DF803008DF8010002208DF80200BD
:102B40006846FEF7CBFF0121880700F051F87FBDF2
:102B500010B50121054800F057F828B101210348BC
:102B600000F043F802F0C4FC10BD00000004004077
:102B70007FB505460C464FF4A060FEF7E7FF1D2029
:102B80008DF80C0000208DF80D0003208DF80E004C
:102B900001208DF80F0003A8FEF7A0FF01210220FD
:102BA000FFF7DCFCADF80450ADF800400020ADF8B4
:102BB0000600ADF802008DF808006946084800F0EC
:102BC0003DF80121064800F00DF8012211460448A5
:102BD00000F02BF80121024800F00AF87FBD000048
:102BE00000040040CA4302827047CA430282704711
:102BF00021B1028842F00102028004E002884FF60F
:102C0000FE731A400280704730B502460020002350
:102C10000024158A05EA0103958905EA010413B128
:102C20000CB1012000E0002030BD1AB183890B43B4
:102C3000838102E083898B4383817047002202886D
:102C40001D4B98420ED01D4B98420BD0B0F1804FD7
:102C500008D01B4B984205D01A4B984202D01A4B11
:102C6000984204D14FF68F731A404B881A43174B82
:102C7000984207D0164B984204D04FF6FF431A40B3
:102C8000CB881A4302808B8883850B8803850A4B87
:102C900098420BD0094B984208D00E4B984205D071
:102CA0000D4B984202D00D4B984201D10B7A03860E
:102CB0000123838270470000002C01400034014052
:102CC0000004004000080040000C004000100040DC
:102CD0000014004000400140004401400048014011
:102CE00010B505210020FDF745FE10BD2DE9F05F70
:102CF0004FF0000A002407E0FFF7F2FF82440520AE
:102D000000F07AFE601CC4B20A2CF5DB0A20BAFB84
:102D1000F0FA5046FDF776FC8346FDF7A5FC064623
:102D2000074A084BFDF7FFFB04460022064BFDF760
:102D300085FB8046FDF77FFC80B2BDE8F09F000078
:102D40007B14AE47E17A44400000594008B50121A8
:102D50000420FFF713FC0120ADF8000000208DF8DF
:102D6000030069460248FEF7D1F9FDF7B7FE08BD3A
:102D700000080140082877D2DFE800F076042A50E6
:102D8000779FC9F08A49097803290ED10021884A22
:102D9000117088494978491C864A51701146497812
:102DA000282914DD1421517011E081490978042982
:102DB0000DD100217E4A11707E494978491E7D4A15
:102DC000517011464978142901DA28215170ECE03C
:102DD0007749097803290ED10021754A1170754988
:102DE0000978491C734A117011460978502914DD7D
:102DF0001421117011E06E49097804290DD10021C8
:102E00006B4A11706B490978491E6A4A1170114664
:102E10000978142901DA50211170C6E06449097853
:102E200003290ED10021624A117062498979491C37
:102E3000604A917111468979322914DD0A21917114
:102E400011E05B49097804290DD10021584A11701D
:102E500058498979491E574A9171114689790A2939
:102E600001DA32219171A0E09EE0514909780329ED
:102E70000FD100214E4A11704E4989880A314D4ABE
:102E8000918011468988B1F5FA7F15DD0021918086
:102E900012E04749097804290ED10021444A1170F3
:102EA000444989880A39434A918011468988012911
:102EB00002DA4FF4FA71918077E03D4909780329ED
:102EC00010D100213A4A11703A4909891431394A1E
:102ED000118111460989B1F5FA6F17DD4FF496712A
:102EE000118113E03249097804290FD10021304AB9
:102EF00011703049098914392E4A11811146098906
:102F0000B1F5967F02DA4FF4FA6111814DE028495C
:102F1000097803290ED10021254A11702549897AA3
:102F2000491C244A9172114609890C2914DD0C218F
:102F3000118111E01E49097804290DD100211C4A94
:102F400011701C498A7AC97A491C8A4204DD1949E0
:102F5000897A491E174A917227E0FFE714490978D8
:102F600003290ED10021124A11701249CA7A897AB6
:102F7000491E8A4217DA0F49C97A491C0D4AD17293
:102F800011E00B49097804290DD10021084A11707C
:102F90000849C97A491E074AD1721146C97A0129DE
:102FA00001DA0121D17200E000BF00BF70470000CC
:102FB000300000208000002000B585B0012144F2DF
:102FC0000400FFF7DBFA4FF40070ADF81000182092
:102FD0008DF8130003208DF8120004A91348FEF7A2
:102FE00095F84FF48060ADF8100004208DF81300C0
:102FF00004A90E48FEF78AF84FF4E1300090002053
:10300000ADF80400ADF80600ADF80800ADF80C000E
:103010000C20ADF80A006946054800F0B1F901211D
:10302000034800F044F905B000BD0000000801406D
:103030000038014000B587B001214804FFF78EFA3F
:1030400001210420FFF79AFA0420ADF818000320AC
:103050008DF81A0018208DF81B0006A91D48FEF7F0
:1030600055F80820ADF8180004208DF81B0006A9BB
:103070001848FEF74BF826208DF8040000208DF844
:10308000050002208DF8060001208DF8070001A838
:10309000FEF724FD4FF4165002900020ADF80C000E
:1030A000ADF80E00ADF81000ADF814000C20ADF82E
:1030B000120002A9084800F063F9012240F22551EC
:1030C000054800F037F90121034800F0F0F807B097
:1030D00000BD0000000801400044004008B540F277
:1030E0002551074800F0FCF840B1054800F0B4F95C
:1030F000C0B200900121684602F044F908BD00000A
:103100000044004000B587B001218804FFF726FA8B
:1031100001210820FFF732FA4FF48060ADF8180063
:1031200003208DF81A0018208DF81B0006A91E48F0
:10313000FDF7ECFF4FF40060ADF8180004208DF8A7
:103140001B0006A91848FDF7E1FF27208DF80400B1
:1031500000208DF8050004208DF8060001208DF870
:10316000070001A8FEF7BAFC4FF4165002900020A9
:10317000ADF80C00ADF80E00ADF81000ADF814007D
:103180000C20ADF8120002A9084800F0F9F801225D
:1031900040F22551054800F0CDF80121034800F028
:1031A00086F807B000BD0000000C01400048004058
:1031B00010B540F22551314800F092F800285BD05C
:1031C0002E4800F049F9C4B22D48007820B10128FA
:1031D00017D002284AD127E02C2C0CD129482A49A3
:1031E0000978445428480078401C27490870012079
:1031F0002349087004E00020234908702049087022
:1032000034E020482049097844541F480078401C85
:103210001D49087008460078062804DB0020087065
:1032200002201749087021E01648007815494978AE
:1032300008441449897808441249C9780844114956
:1032400009790844C0B20F494979884208D1002061
:103250000B4908700C49087001200C49087004E003
:103260000020094908700649087000BF00BF40F2FD
:103270002551024800F00CF810BD00000048004045
:1032800038000020310000203900002037000020E5
:1032900010B50022002340F66A14A14200D100BFFD
:1032A0000A1201249440A3B2DC43048010BD21B172
:1032B000828942F40052828104E082894DF6FF73D4
:1032C0001A408281704702460020B1F5007F00D18C
:1032D00000BF13880B400BB1012000E000207047B5
:1032E00070B50246002400230025002040F66A162F
:1032F000B14200D100BFC1F3421501F01F03012606
:1033000006FA03F3012D02D19689334006E0022D1F
:1033100002D1168A334001E0968A33400C1201260E
:1033200006FA04F41688344013B10CB1012000E011
:10333000002070BDF0B503460024002600250020C3
:1033400040F66A17B94200D100BF1846C1F34214D3
:1033500001F01F06012707FA06F5012C01D10C30F8
:1033600004E0022C01D1103000E014301AB10768DB
:103370002F43076002E00768AF430760F0BD00001D
:103380002DE9F04786B005460E460024A24600BF50
:10339000A1460027B08900B100BF2F462C8A4CF609
:1033A000FF700440F08804432C82AC894EF6F31081
:1033B0000440B08831890843718908430443AC81D3
:1033C000AC8A4FF6FF400440B0890443AC8201A8A8
:1033D000FFF7E4F81F48874202D1DDF810A001E0B2
:1033E000DDF80CA0A88900F4004040B10AEBCA0047
:1033F00000EB0A1031684900B0FBF1F807E00AEB76
:10340000CA0000EB0A1031688900B0FBF1F86420B3
:10341000B8FBF0F004012009642101FB1089A889A0
:1034200000F4004040B1322000EBC900B0FBF1F0E5
:1034300000F00700044308E0322000EB091064218B
:10344000B0FBF1F000F00F0004432C8106B0BDE8A2
:10345000F08700000038014001468888C0F308006A
:103460007047C1F308028280704700BFFEE700008A
:103470000FB4054B10B503A9044A029800F018F8E0
:1034800010BC5DF814FB0000A53A0008680000209D
:1034900002E008C8121F08C1002AFAD1704770471D
:1034A000002001E001C1121F002AFBD1704700007B
:1034B0002DE9FF4F8DB00F460546002606E0252872
:1034C0000BD0DDE90F1290476D1C761C2878002880
:1034D000F5D111B03046BDE8F08F0024A246A146D8
:1034E0000122EC4900E0044315F8013F203B02FAB9
:1034F00003F00842F7D128782A2810D06FF02F0265
:103500002878A0F13001092914D80AEB8A0102EBCE
:10351000410144F0020400EB010A6D1CF0E701CF09
:103520005FEA000A03D544F40054CAF1000A44F0EB
:1035300002046D1C28782E2817D115F8010F44F0CD
:1035400004042A280ED06FF02F022878A0F1300151
:1035500009290AD809EB890102EB410100EB0109B5
:103560006D1CF2E757F8049B6D1C28786C280FD06F
:1035700006DC4C2817D068280DD06A2814D104E046
:10358000742810D07A280FD10DE044F400140AE01A
:1035900044F4801401E044F440146978814202D17B
:1035A00004F580146D1C6D1C2A786E2A1FD00CDC6B
:1035B000632A31D004DC002A8BD0582A11D1A3E031
:1035C000642A68D0692A0CD165E0732A2ED004DC05
:1035D0006F2A73D0702A04D19BE0752A6FD0782AA5
:1035E0006ED01046DDE90F129047761C50E1C4F30F
:1035F0000250022806D0032809D0042801CF09D0A0
:10360000066045E101CFF117C0E9006140E101CF5B
:1036100006803DE106703BE117F8040B8DF80000D1
:1036200000208DF80100EB46012003E057F804BBB1
:103630004FF0FF3061074FF0000102D40DE008F1B8
:103640000101884649450FDA8045F8DB1BF8081070
:103650000029F4D108E008F1010188468142FADB33
:103660001BF808100029F6D1DDE90F23AAEB0800AA
:103670008146214600F036F9304400EB080604E0AC
:10368000DDE90F121BF8010B9047B8F10108F7D2E2
:1036900021464846F7E00A21C4F302534FF0000BDD
:1036A0000891022B04D001CFC117032B09D00AE0E7
:1036B000FF1D27F00707F7E8020108E032E01FE0EE
:1036C00020E000B2C117042B01D140B2C117031E84
:1036D00071F1000307DA4FF0000CD0EB0C006CEB3B
:1036E00001012D2302E0230504D52B238DF824307E
:1036F000012303E0E30701D02023F7E7984658E0D1
:103700000A2110E010210EE010204FF0000B08906D
:103710000CE010214FF0000B44F004044FF00809B6
:10372000089103E008214FF0000B0891C4F3025305
:10373000022B04D001CF0021032B06D006E0FF1D91
:1037400027F00707F7E8020103E080B2042B00D15D
:10375000C0B24FF0000823072BD5702A07D0DDF840
:1037600020C08CF0100C5CEA0B0C05D00EE040235E
:103770008DF82430012308E050EA010306D03023FD
:103780008DF824308DF8252002239846DDF820C0DE
:103790008CF0080C5CEA0B0C0BD150EA010301D150
:1037A000630706D530238DF824304FF00108A9F1C6
:1037B0000109582A04D038A20B9208AA0A920BE0F9
:1037C0003AA2F9E75B46089AFCF7A0FF0B9B9B5CCB
:1037D0000A9A521E0A92137050EA0102F2D10A9814
:1037E000ADEB000000F1200B600702D524F480341B
:1037F00001E04FF00109D94502DDA9EB0B0000E023
:10380000002000EB0B0141440890AAEB010AE00301
:1038100006D4DDE90F232146504600F063F8064444
:103820004FF0000908E009A911F80900DDE90F12BD
:10383000904709F10109761CC145F4DBE0030CD582
:10384000DDE90F232146504600F04CF8064404E021
:10385000DDE90F1230209047761C0899481E089029
:103860000029F5DC08E00A980A990078491C0A91B9
:10387000DDE90F129047761CBBF10001ABF1010BA3
:10388000F1DC21465046DDE90F2300F019F806442B
:103890006D1C1BE6092801003031323334353637D0
:1038A000383961626364656600000000303132338C
:1038B000343536373839414243444546000000002C
:1038C0002DE9F041044600251E461746880404D41D
:1038D00005E039462020B0476D1C641EF9D5284606
:1038E000BDE8F0812DE9F041044600251E469046D2
:1038F000C80301D5302700E02027880404D505E05F
:1039000041463846B0476D1C641EF9D52846BDE8CF
:10391000F08110B5FDF7F4F94720FDF7C1F9FDF787
:1039200025FA0120FDF790F904464FF6FF7000EAF2
:1039300004240020FDF788F9204484B2FDF7FCF947
:10394000204610BD10B5044600BFFDF7D9F946204A
:10395000FDF7A6F9FDF70AFA0028F6D12046FDF793
:103960009FF9FDF703FAFDF7E7F910BD02460021C4
:103970000020137803F0010303B1491C1378C3F34B
:10398000400303B1491C1378C3F3800303B1491CFE
:103990001378C3F3C00303B1491C1378C3F3401376
:1039A00003B1491C09B9002007E001F007030BB976
:1039B000C80802E0012303EBD100704710B50446AC
:1039C0006FF00400FFF758F8E11704EB5171C1F3F1
:1039D000C701074A11701046007800EB4001C1EBA7
:1039E000C0104FF6FF7101EAC0000249088010BD07
:1039F0003A0000203C00002001460D4A12884A434C
:103A00004FF0E0235A6100229A6101221A6100BF3F
:103A10004FF0E022106900F001021AB100F4803288
:103A2000002AF5D000224FF0E0231A619A61704716
:103A30003C00002001460D4A12784A434FF0E02333
:103A40005A6100229A6101221A6100BF4FF0E02200
:103A5000106900F001021AB100F48032002AF5D09A
:103A600000224FF0E0231A619A6170473A0000206B
:103A700001B581B000200090694601AA5078087015
:103A800010784870BDF800000CBD0146080601F42E
:103A90007F4240EA022001F47F0240EA122040EA1D
:103AA0001160704770B504460D46E1B20548FFF756
:103AB000D8FC00BF0348008800F080000028F9D03F
:103AC000204670BD0038014010B5002821D0114BB0
:103AD0000022001F196803E0814203D80A464968A2
:103AE0000029F9D152B11368841A9C4204D10068AC
:103AF00018441060104602E0506000E0186039B1D0
:103B000002680B1A934203D10B681A440260496899
:103B1000416010BD6C000020024612B102F00700A7
:103B200028B9082901D8002070470120FCE702F0DD
:103B30000700C0F10800884201D30020F4E701200B
:103B4000F2E730B502460B460021002400250AB9F1
:103B5000481E30BD002108E0545C581A401E155C18
:103B60005554581A401E1454491CB1EB530FF3D34B
:103B70000020EEE72DE9F04104460D46002700261F
:103B800004B135B988A0FFF773FC4FF0FF30BDE8F2
:103B9000F08100F047FC06462878217888420CD056
:103BA0008BA0FFF765FC8F4890F8290120F00100F9
:103BB000401C8C4981F82901012768786178884286
:103BC0000CD089A0FFF754FC864890F8290120F01A
:103BD0000200801C834981F829010127A878A17877
:103BE00088420CD087A0FFF743FC7E4890F829015B
:103BF00020F00400001D7B4981F829010127E878A5
:103C0000E17888420CD088A0FFF732FC754890F824
:103C1000290120F008000830724981F829010127A4
:103C20002879217988420CD084A0FFF721FC6D48C7
:103C300090F8290120F0100010306A4981F829011C
:103C40000127D5F80500D4F8051088420CD081A0D2
:103C5000FFF70EFC634890F8290120F02000203087
:103C6000604981F829010127D5F80900D4F8091025
:103C7000884212D07C480068301AB0F57A7F0CD3A5
:103C80007AA0FFF7F5FB574890F8290120F0400093
:103C90004030544981F829010127D5F80D00D4F8A6
:103CA0000D10884212D070480068301AB0F57A7F43
:103CB0000CD375A0FFF7DCFB4A4890F8290120F0EF
:103CC00080008030474981F829010127D4F811107C
:103CD000D5F81100FCF710FD12D063480068301AC7
:103CE000B0F57A7F0CD36EA0FFF7C2FB3D4890F889
:103CF0002A0120F00100401C3A4981F82A010127DD
:103D0000D5F81500D4F81510884212D0564800682E
:103D1000301AB0F57A7F0CD366A0FFF7A9FB3148C3
:103D200090F82A0120F00200801C2E4981F82A0117
:103D30000127D5F81900D4F81910884212D04A4842
:103D40000068301AB0F57A7F0CD361A0FFF790FBC2
:103D5000244890F82A0120F00400001D214981F830
:103D60002A010127D5F81D00D4F81D10884212D071
:103D70003D480068301AB0F57A7F0CD359A0FFF7A0
:103D800077FB184890F82A0120F008000830154900
:103D900081F82A010127012F03D100F043FB3249AA
:103DA00008603846F3E6000067697A436865636B2C
:103DB0005265706F7274204572726F72202C2049A8
:103DC0006C6C6567616C20506172616D0A00000067
:103DD00076616C756566616E204368616E676564C7
:103DE0000A0000003005002076616C75657761740B
:103DF00065725F70756D70204368616E6765640AF7
:103E00000000000076616C756576656E74696C61A2
:103E100074696F6E5F6F70656E696E67204368616D
:103E20006E6765640A00000076616C75654C4544F8
:103E3000204368616E6765640A00000076616C75F6
:103E40006562757A7A6572204368616E6765640A97
:103E50000000000076616C75654D6F64656C2043F1
:103E600068616E6765640A005800002076616C75B1
:103E70006554656D70657261747572652043686123
:103E80006E6765640A00000076616C756548756D43
:103E90006964697479204368616E6765640A00002B
:103EA00076616C75657068204368616E6765640A49
:103EB0000000000076616C7565736F696C5F6875F2
:103EC0006D6964697479204368616E6765640A008E
:103ED00076616C75654C5558204368616E67656402
:103EE0000A00000076616C7565434F3220436861BB
:103EF0006E6765640A0000002DE9FE4305460C4626
:103F000016464FF000080027B946002000900190A7
:103F100002902888ADF800000DB104B136B949A06F
:103F2000FFF7A6FA4FF0FF30BDE8FE830221684696
:103F3000FFF707FEB0F1FF3F05D14DA0FFF798FA5C
:103F40004FF0FF30F0E76846FFF710FD804608F1BC
:103F5000020081449DF8000000F0010090B11121A1
:103F60002278601C81542078401C20704346AA1C93
:103F70000121384601F002FB08B1012000E00020D9
:103F800030707F1C9DF80000C0F3400090B11221FA
:103F90002278601C81542078401C20704346AA1C63
:103FA0000121384601F0EAFA08B1012000E00020C2
:103FB00070707F1C9DF80000C0F3800090B1132149
:103FC0002278601C81542078401C20704346AA1C33
:103FD0000121384601F0D2FA08B1012000E00020AA
:103FE000B0707F1C9DF80000C0F3C00090B1142198
:103FF0002278601C81542078401C20704346AA1C03
:104000000121384601F0BAFA08B1012000E0002091
:10401000F0707F1C9DF80000C0F3401078B11521AE
:104020002278601C81542078401C20704346AA1CD2
:104030000121384601F0A2FAC6F805007F1C0020D5
:1040400072E7000067697A44617461506F696E7449
:10405000324576656E74204572726F72202C20494D
:104060006C6C6567616C20506172616D0A000000C4
:1040700067697A427974654F7264657245786368DE
:10408000616E6765204572726F720A002DE9F04714
:1040900086B005460F4690464FF0000900260024E2
:1040A00000200090019002908B48B0F82901ADF8F3
:1040B000000002216846FFF744FDA41C05B13FB98A
:1040C00086A0FFF7D5F94FF0FF3006B0BDE8F087C6
:1040D000814890F8290100F0010038B12B780DEBF0
:1040E00004020121304601F00BFA761C7A4890F860
:1040F0002901C0F3400038B16B780DEB04020121B7
:10410000304601F0FDF9761C734890F82901C0F3A0
:10411000800038B1AB780DEB04020121304601F08C
:10412000EFF9761C6C4890F82901C0F3C00038B153
:10413000EB780DEB04020121304601F0E1F9761C29
:10414000654890F82901C0F3001038B12B790DEBC8
:1041500004020121304601F0D3F9761C5E4890F844
:104160002901C0F3401090B1D5F80500022805D30D
:1041700066A0FFF77DF94FF0FF30A6E7D5F80530D0
:104180000DEB04020121304601F0BAF9761C16B994
:104190004FF0000908E006F0070010B94FEAD60911
:1041A00002E0012000EBD609B9F1010F04D90DEBB3
:1041B00004004946FFF7C5FC4C44474890F82901E4
:1041C000C0F3801068B1D5F809200021012001F06A
:1041D00037FAC0B28DF80D009DF80D100DF80410DF
:1041E000641C3D4890F82901C00968B1D5F80D203C
:1041F0000021012001F024FAC0B28DF80E009DF8D4
:104200000E100DF80410641C334890F82A0100F0D9
:10421000010068B1D5F811200021484801F017FAD3
:10422000C0B28DF80F009DF80F100DF80410641C3B
:10423000294890F82A01C0F3400068B1D5F815204C
:104240000021012001F0FCF9C0B28DF810009DF8AA
:1042500010100DF80410641C1F4890F82A01C0F3D8
:10426000800090B1D5F819200021012001F0E8F973
:104270001FFA80FA5046FFF7FBFBADF811000DEB7B
:104280000400BDF811100180A41C134890F82A0105
:10429000C0F3C00090B1D5F81D200021012001F02D
:1042A000CFF91FFA80FA5046FFF7E2FBADF8130092
:1042B0000DEB0400BDF813100180A41C064800217A
:1042C000A0F82911C8F8004069463846D8F80020FF
:1042D000FBF724FF0020F8E63005002067697A44E8
:1042E000617461506F696E7473325265706F72746D
:1042F00044617461204572726F72202C20496C6C8D
:104300006567616C20506172616D0A005B455252B5
:104310004F525D2076616C75654D6F64656C20450C
:1043200072726F72202C20496C6C6567616C204F33
:10433000766572737465700A00000000CDCCCC3DC8
:1043400070B5054600F06EF804460026254928465B
:10435000FFF710FC012817D123A0FFF789F8214AA5
:10436000253AA2F10D012846FFF790FE38B92448FE
:1043700000F22B11D0F83821142001F03DF8212251
:1043800029461848FBF7CAFE1E48B4FBF0F100FBB3
:10439000114018BB1C480068A0421FD01BA0FFF7AB
:1043A00067F8FF2202210F483438FBF7C9FE0D4A97
:1043B000253AA2F10D012846FFF768FE38B91048EA
:1043C00000F22B11D0F83821142001F015F8212229
:1043D00029460448FBF7A2FE0B4804603046FFF76D
:1043E00073FB70BD8D0600206368616E6765642C89
:1043F000207265706F727420646174610A0000003D
:1044000030050020C02709005C000020496E666F5F
:104410003A2036303053207265706F7274206461B8
:1044200074610A00014800687047000054000020D1
:1044300010B5174890F88900012827D1144890F842
:10444000880002281DDAFFF7EDFF1149D1F8C910E5
:10445000401AC8281AD9FFF7E5FF04460C4890F81F
:104460008830D0F8C92021460AA0FFF701F800F0F3
:10447000E1FE074890F88800401C054981F8880053
:1044800004E0452102488830FBF761FE10BD0000C2
:10449000300500205761726E696E673A67697A501D
:1044A000726F746F636F6C526573656E6444617490
:1044B000612025642025642025640A003EB5044659
:1044C000002524B913A0FEF7D3FF681E3EBD206867
:1044D0000090606801909DF80400401CC0B28DF807
:1044E00004000520FFF7C4FAADF802000921684670
:1044F00000F0DEFE8DF808000921684601F01CFF7F
:104500000546002D03DA29460DA0FEF7B1FF284627
:10451000DCE700004552523A2067697A50726F74A6
:104520006F636F6C436F6D6D6F6E41636B20646181
:10453000746120697320656D707479200A00000031
:104540004552523A20756172742077726974652001
:104550006572726F72202564200A0000FEB5044661
:104560000E46002524B914A0FEF782FF681EFEBD8A
:10457000684600F0D3F912208DF8040060798DF8B8
:1045800005000620FFF774FAADF802008DF8086008
:104590000A21684600F08CFE8DF809000A21684661
:1045A00001F0CAFE0546002D03DA29460DA0FEF7EC
:1045B0005FFF2846DBE7000067697A50726F746F0F
:1045C000636F6C4572726F72436D64204572726FD7
:1045D00072202C20496C6C6567616C20506172619F
:1045E0006D0A00004552523A20756172742077724C
:1045F000697465206572726F72202564200A00005C
:1046000030B59DB0044600252CB926A0FEF730FF3A
:10461000681E1DB030BD684600F080F902208DF89C
:10462000040060798DF805002AA103C9CDE90201D3
:104630002BA103C9CDE904012CA103C9CDE90801CF
:104640002DA103C9CDE9060100BF00BF0020CDF8B0
:104650004A00CDF84E009DF851008DF851009DF8AC
:10466000510040F002018DF851100020FFF700FAD0
:10467000ADF848006F20FFF7FBF9ADF80200732199
:10468000684600F015FE8DF872007321684601F04F
:1046900053FE0546002D03DA29461AA0FEF7E8FE70
:1046A0002846B6E767697A50726F746F636F6C471C
:1046B0006574446576696365496E666F20457272FC
:1046C0006F72202C20496C6C6567616C20506172A0
:1046D000616D0A003030303030303034000000007E
:1046E0003030303030303032000000003033303382
:1046F0003030303000000000303330313031303075
:10470000000000004552523A2075617274207772A1
:10471000697465206572726F72202564200A00003A
:104720002DE9FE4F80460E4617464FF0000B002045
:10473000029081468246002534460090B8F1000F71
:1047400001D006B137B955A0FEF792FE4FF0FF3009
:10475000BDE8FE8F404601F013FD1FFA80FABAF162
:10476000000F02D14FF0FF30F2E74FF0000969E08F
:10477000012201A9404601F040FD8346BBF1000F34
:104780005ED052480078FF281FD19DF80400FF2812
:104790001BD14F48007848B9FF202070607002207C
:1047A0004C49088001204A49087040E04948008887
:1047B00004283CDD47480088A84238D0FF202070FC
:1047C000607002204349088031E040480078FF28AB
:1047D00003D19DF80400552829D03D4800780128D0
:1047E00025D19DF804003B49098860543948008868
:1047F000401C3849088008460088042817DD0094CA
:10480000009C6088FFF734F9001D85B23D2D01D270
:10481000042D07DC00202E4908702E4908802EA0A8
:10482000FEF726FE2B480088A84200D10CE09DF838
:1048300004002649087038480078401C3649087042
:1048400009F10109D14593DB00BF22480088042803
:1048500022DD20480088A8421ED11E48018820463B
:1048600000F026FD02901B480088401E215C029843
:1048700081420AD13D800020154908701549088001
:10488000254908701149087062E700201049087036
:1048900010490880801E5BE7012059E767697A505C
:1048A000726F746F636F6C4765744F6E65506163B0
:1048B0006B6574204572726F72202C20496C6C6598
:1048C00067616C20506172616D0A00006400002015
:1048D00060000020620000204552523A7468652052
:1048E00064617461206C656E6774682069732074FC
:1048F0006F6F206C6F6E67206F7220746F6F207304
:104900006D616C6C2C2077696C6C206162616E64E7
:104910006F6E200A000000006500002010B50446FC
:104920002CB907A0FEF7A4FD4FF0FF3010BD00200A
:1049300020606060FF20207060700020F6E70000BB
:104940004552523A2067697A50726F746F636F6C88
:1049500048656164496E69742068656164206973A3
:1049600020656D707479200A000000002DE9F04F79
:10497000A1B006468B4617469946002020908246F5
:104980008046002501ACBBF1000F06D131A0FEF737
:104990006FFD681E21B0BDE8F08FB9F1010F06D19F
:1049A00096F8088008F10600384485B201E0781DC9
:1049B00085B22B46424639462CA0FEF759FDFF2012
:1049C00004F8010B04F8010B281204F8010B04F899
:1049D000015B3079401C04F8010B707904F8010B7D
:1049E000002004F8010B04F8019B4FF0080AB9F10C
:1049F000010F0DD104F8018B0AF1010A01A901EBA5
:104A00000A00424606F10901FBF788FBC244444410
:104A100037B101A901EB0A003A465946FBF77EFB84
:104A2000291D01A800F044FC0146E81C01AA11540C
:104A3000291D01A801F080FC20902098002806DAAA
:104A400014A02099FEF714FD6FF00100A2E70020EA
:104A5000A0E700005B4552525D2020646174612034
:104A60004973204E756C6C200A0000006C656E2046
:104A70003D202564202C20734469644C656E203DE4
:104A8000202564202C646174615F6C656E203D207C
:104A900025640A00756172742077726974652065F7
:104AA00072726F72202564200A0000002DE9F04721
:104AB00080460C4617461D46089E94F800900CB19F
:104AC00005B136B93AA0FEF7D3FC4FF0FF30BDE890
:104AD000F087B8F1000F68D117214148FBF737FB89
:104AE000B9F1050F40D0B9F1110F03D0B9F1120F90
:104AF00059D110E03BA0FEF7BBFC394A6F32384970
:104B0000601CFFF7F9F901203549CD3908700025FF
:104B10000020306048E03CA0FEF7AAFC3048CD38C9
:104B2000B4F80110A0F82911022100F22910FFF7B2
:104B300008F82B4A6B32A2F10D0101F13200FFF7A8
:104B4000A5FA68B92648CD3800F22B11D0F83821E3
:104B5000681CFBF7E3FA132028700C20306002E099
:104B60004FF0FF30B3E71FE07A1E611C1C488F38FE
:104B7000FBF7D4FA781E1A49CD39C86710211848B6
:104B8000CD3890F8CD20CE308154CE3890F8CD007D
:104B9000401C1349CD3981F8CD0003200870002551
:104BA0000020306000E000BF00BF00208FE7000061
:104BB00067697A50726F746F636F6C497373756550
:104BC0006450726F63657373204572726F72202C2C
:104BD00020496C6C6567616C20506172616D0A00E0
:104BE000FD050020414354494F4E5F454C4F4E4711
:104BF0004154455F434F4E54524F4C5F44455649D4
:104C00004345200A00000000414354494F4E5F4590
:104C10004C4F4E474154455F524541445F444556D1
:104C20005F535441545553200A00000070B50446A8
:104C300025462CB90EA0FEF71BFC4FF0FF3070BDCF
:104C4000412205F108010E48FBF768FA0F210D48D3
:104C500090F8122100F2131081540A4890F81201C2
:104C6000401C084981F81201052008700020E6E781
:104C70004E545020697320656D707479200A0000CD
:104C8000BC0600203005002010B504462CB9CAA08F
:104C9000FEF7EEFB4FF0FF3010BD2089FEF7E8FE77
:104CA0002081D1480078C0F38000217AC1F38001CF
:104CB000884256D0207AC0F38000002829D0207A7C
:104CC00000F0010078B10021C84890F8E420E530F8
:104CD0008154E53890F8E400401CC44981F8E400B0
:104CE000C3A0FEF7C5FB207AC0F34000002838D0EF
:104CF0000121BE4890F8E420E5308154E53890F871
:104D0000E400401CB94981F8E400C1A0FEF7B0FB03
:104D100027E0207A00F0010078B10021B34890F834
:104D2000E420E5308154E53890F8E400401CAF49B8
:104D300081F8E400AEA0FEF79BFB207AC0F34000B0
:104D400078B10221A94890F8E420E5308154E53893
:104D500090F8E400401CA54981F8E400B3A0FEF7F8
:104D600087FBA1480078C0F3C000217AC1F3C001DD
:104D700088422CD0207AC1089B48007861F3C30098
:104D800099490870207AC0F3C00080B10321974888
:104D900090F8E420E5308154E53890F8E400401CB8
:104DA000924981F8E400A8A0FEF762FB0FE004211D
:104DB0008E4890F8E420E5308154E53890F8E4001E
:104DC000401C8A4981F8E400A7A0FEF751FB864801
:104DD0000078C0F30010217AC1F3001188422CD072
:104DE000207A01098048007861F304107E49087038
:104DF000207AC0F3001080B105217C4890F8E420AF
:104E0000E5308154E53890F8E400401C774981F89A
:104E1000E4009DA0FEF72CFB0FE00621734890F8FC
:104E2000E420E5308154E53890F8E400401C6F49F7
:104E300081F8E4009CA0FEF71BFB6B480078C0F3F0
:104E40004010217AC1F3401188422CD0207A4109C8
:104E50006548007861F3451063490870207AC0F313
:104E6000401080B10721614890F8E420E53081547A
:104E7000E53890F8E400401C5C4981F8E40093A018
:104E8000FEF7F6FA0FE00821584890F8E420E530E4
:104E90008154E53890F8E400401C544981F8E4005E
:104EA00091A0FEF7E5FA50484078C0F3C001607A5F
:104EB000C0F3C00081422CD0607AC1084A484078D3
:104EC00061F3C30048494870607AC0F3C00080B104
:104ED0000B21464890F8E420E5308154E53890F8FD
:104EE000E400401C414981F8E40087A0FEF7C0FAC5
:104EF0000FE00C213D4890F8E420E5308154E5387E
:104F000090F8E400401C394981F8E40085A0FEF7E0
:104F1000AFFA35484078C0F30011607AC0F3001052
:104F200081422CD0607A01092F48407861F3041047
:104F30002D494870607AC0F3001080B109212B48D8
:104F400090F8E420E5308154E53890F8E400401C06
:104F5000264981F8E4007BA0FEF78AFA0FE00A21D7
:104F6000224890F8E420E5308154E53890F8E400D8
:104F7000401C1E4981F8E40079A0FEF779FA0D2162
:104F80001A4890F8E420E5308154E53890F8E400C0
:104F9000401C164981F8E400607A00F0070081F8AF
:104FA0007E01084690F87E1174A0FEF761FA022097
:104FB0000E49087000206FE667697A50726F746F4F
:104FC000636F6C4D6F64756C655374617475732099
:104FD0004572726F72202C20496C6C6567616C2081
:104FE000506172616D0A00006600002030050020EB
:104FF0004F6E426F617264696E673A20536F6674D8
:105000004150206F7220576562206D6F64650A0001
:105010004F6E426F617264696E673A204169724CEB
:10502000696E6B206D6F64650A0000004F6E426F01
:10503000617264696E673A2053746174696F6E209F
:105040006D6F64650A0000005769466920737461DA
:105050007475733A20696E2062696E64696E6720A8
:105060006D6F64650A0000005769466920737461BA
:105070007475733A206F75742062696E64696E6727
:10508000206D6F64650A000057694669207374617A
:105090007475733A20636F6E6E6563746564207215
:1050A0006F757465720A00005769466920737461F0
:1050B0007475733A20646973636F6E6E65637465AB
:1050C0006420726F757465720A0000005769466942
:1050D000207374617475733A20636F6E6E656374C8
:1050E0006564206D326D0A005769466920737461EA
:1050F0007475733A20646973636F6E6E656374656B
:1051000064206D326D0A000057694669207374612E
:105110007475733A2061707020636F6E6E6563748E
:105120000A00000057694669207374617475733A08
:10513000206E6F2061707020636F6E6E6563740AFD
:105140000000000057694669207374617475733AF2
:1051500020696E2074657374206D6F64650A0000A9
:1051600057694669207374617475733A206F75745A
:105170002074657374206D6F64650A00525353493F
:10518000206973202564200A0000000070B50446E1
:1051900025462CB919A0FEF76BF94FF0FF3070BD12
:1051A0001B48A9680160A9898180A97B8171A0F54C
:1051B000C070D5F80F10C0F888110146B1F8800111
:1051C000FEF756FC1349A1F88001D1F88801FEF7DB
:1051D0005CFC1049C1F888010E210E4890F8FB20B4
:1051E000FC308154FC3890F8FB00401C094981F8E0
:1051F000FB00042008700020D1E700004552523A1D
:10520000204E545020697320656D707479200A0017
:10521000B00600203005002010B5FFF703F9044662
:1052200000BFFFF7FFF8001BB0F5167FF9D900F0BB
:105230008FFF10BD10B500240E4890F8890000B90A
:1052400010BD0DA0FEF714F90A48B0F8C7108A3057
:1052500001F072F804460748B0F8C700A04202D037
:105260000DA0FEF705F9FFF7DDF80249C1F8C90006
:1052700000BFE5E7300500205761726E696E673A3E
:105280002074696D656F75742C20726573656E642A
:105290002064617461200A004552523A207265739D
:1052A000656E642064617461206572726F720A00B9
:1052B00010B502460024002302B109B9002010BD38
:1052C000022303E0D05C2044C4B25B1C481E984219
:1052D000F8D82046F3E7000070B504460D462CB917
:1052E0000FA0FEF7C5F84FF0FF3070BD4521124802
:1052F000FAF72DFF2A4621460F48801CFAF70EFFC9
:105300000D488838A0F8C750012180F88910FFF7B0
:1053100089F809498839C1F8C9000020E5E700008B
:105320004552523A206461746120697320656D7042
:105330007479200A00000000B805002070B504460A
:10534000094D2CB909A0FEF793F84FF0FF3070BD5E
:105350002879401C2179884204D145210248801EC9
:10536000FAF7F5FE0020F2E7BA0500204552523A5E
:10537000206461746120697320656D707479200AFE
:105380000000000070B504460D46002624B90AA0AE
:10539000FEF76EF8701E70BD2A4621460E4800F0DA
:1053A0007DFF0646AE4205D00CA0FEF761F84FF037
:1053B000FF30F0E73046EEE74552523A2067697A0F
:1053C000507574446174612062756620697320654C
:1053D0006D707479200A0000000700204552523A8F
:1053E000204661696C656420746F2072625772692F
:1053F0007465200A000000002DE9F04391B00646D4
:105400000F4690464FF0000901AC08F1060085B246
:105410003FB925A0FEF72CF84FF0FF3011B0BDE8E2
:10542000F083FF2004F8010B04F8010B281204F8A4
:10543000010B04F8015B052004F8010B244890F8E7
:105440008010D0F88000401C214AC2F8800004F887
:10545000011B002004F8010B04F8010B04F8016B98
:10546000424639460DF10D00FAF758FE291D01A8F4
:10547000FFF71EFF0146E81C01AA1154291D01A8CF
:1054800000F05AFF8146B9F1000F06DA494611A033
:10549000FDF7EEFF6FF00100C0E7291D01A8FFF73F
:1054A0001BFF0020BAE7000067697A5265706F72CF
:1054B0007444617461204572726F72202C20496CB3
:1054C0006C6567616C20506172616D0A00000000BC
:1054D000300500204552523A20756172742077726F
:1054E000697465206572726F72202564200A00005D
:1054F00002480068401C01490860704754000020C1
:105500002DE9F0470546884614461E464FF000092F
:10551000CA460027002314B9581EBDE8F087EB08DF
:1055200041462846FEF7F8FA07463FB9E05C05F029
:10553000070106FA01F10843E0541DE0012F1BD1D9
:10554000F0B205F00701C1F1080140FA01F905F0D8
:105550000700C0F10801FF20084100EA060A581CB4
:10556000205C40EA0900591C6054E05C05F007012A
:105570000AFA01F10843E0540020CEE72DE9F04F8C
:105580008FB004460F4690461D460026B246B146EF
:10559000B34600200E90B8F1000F00D025B94FF0AF
:1055A000FF300FB0BDE8F08F4FEAD4092A464146DC
:1055B00001A8FAF7B3FD012D09D9294601A8FEF784
:1055C000C0FAB0F1FF3F02D14FF0FF30E9E73946B2
:1055D0002046FEF7A1FA8246BAF1000F0CD101A8CD
:1055E00010F8090004F007010841C7F10802FF2183
:1055F00011410840064321E0BAF1010F1ED101A973
:1056000009F10100085C04F00701C1F10801791AF1
:10561000C1F10802FF21114100EA010B01A810F8B5
:10562000090004F0070108410E9004F00700C0F1E2
:1056300008010BFA01F006430E9806433046B0E726
:1056400010B503460020541AB4FBF3F010BD2DE949
:10565000F04704460E461546002731462846FAF71D
:10566000D3FD81462146FAF707FE8046FAF7CFFFC1
:1056700007463846BDE8F0872DE9FF5F07460E462E
:1056800093464FF000083446B1463546B24607B15E
:1056900026B94FF0FF3004B0BDE8F09F4FF000088E
:1056A000CAE0781C10F80800162871D2DFE800F074
:1056B000929394BEBE95969798BEBEBEBE99A3B275
:1056C0009F0B253E577120785E4908700846017887
:1056D0005DA0FDF7CDFE5B480078012806D10220D1
:1056E0005E49087003205E49087005E002205B49AE
:1056F000087004205A49087099E060785149487050
:105700000846417857A0FDF7B3FE4E48407801287F
:1057100005D10320514908705149087005E0032064
:105720004E49087004204E49087080E0A078454931
:1057300088700846817852A0FDF79AFE414880782B
:10574000012806D104204549087003204449087007
:1057500004E00420414908704149087067E0E0789E
:105760003849C8700846C1784EA0FDF781FE35481B
:10577000C078012805D139490870032038490870DC
:1057800005E00120354908700420354908704EE0D5
:105790004CE0D4F805002B49C1F805000846D0F8C4
:1057A000051045A0FDF764FE2648D0F8050010B1AD
:1057B00001280CD105E0002045490860FCF7D0F92C
:1057C00006E0012042490860FCF7CAF900E000BF8A
:1057D00000BF2CE02BE02AE029E028E027E026E0CB
:1057E00025E099F800103BA0FDF742FE1FE03CA029
:1057F000FDF73EFE1BE0A9796A792B79A868CDE90F
:105800000032CDE90210EB78AA78298839A0FDF79B
:105810002FFE0CE042A0FDF72BFE46A0FDF728FE70
:105820009AF8001047A0FDF723FE00E000BF00BF7C
:1058300008F1010000F0FF08387840453FF731AF2C
:10584000002028E70C0500204576743A204556458F
:105850004E545F66616E202564200A00150000200A
:10586000300000204576743A204556454E545F7707
:10587000617465725F70756D70202564200A000088
:105880004576743A204556454E545F76656E746988
:105890006C6174696F6E5F6F70656E696E672025ED
:1058A00064200A004576743A204556454E545F4CB4
:1058B0004544202564200A004576743A2045564523
:1058C0004E545F4D6F64656C2025640A0000000033
:1058D00010000020525353492025640A00000000A4
:1058E0005452414E53504152454E545F44415441ED
:1058F000200A0000574946495F4E5450203A205B29
:1059000025642D25642D256420253032643A253008
:1059100032643A253032645D5B25645D200A000004
:105920004D4F44554C4520494E464F202E2E2E0AB1
:1059300000000000574946204D4F44554C45202E4D
:105940002E2E0A006D6F64756C6554797065203A6F
:10595000205B25645D200A002DE9F041A2B00546D8
:10596000002600200290019000248046002735B9CF
:1059700082A0FDF77DFD601E22B0BDE8F081FEF73C
:1059800057FD02AA87498848FEF7CAFE0646002E40
:1059900071D186A0FDF76CFD824C20790F284FD085
:1059A0000ADC0E2873D2DFE800F07216721A7272E7
:1059B000433872724472453C182852D006DC1128D4
:1059C00047D0142846D0162861D134E0222854D07C
:1059D0002A285CD130E02046FEF712FE5FE0E27933
:1059E000A17977A0FDF744FD01A8009007F1090017
:1059F000BDF808301A1A6B480830C11903AB40468D
:105A0000FFF754F840B9E37903A92046019AFEF75D
:105A1000ADFF6FA0FDF72CFD41E02046FEF74EFDE7
:105A20003DE02046FEF74AFD2046FFF72DF936E01F
:105A300000BF00BF00BF00BF2046FFF77FFC2EE085
:105A40002046FEF73BFD65A0FDF712FDFFF7E4FBE6
:105A500025E024E02046FFF771FC65A0FDF708FD76
:105A60001DE02046FFF76AFC2046FFF78FFB68A089
:105A7000FDF7FEFC13E013E009E02046FFF75EFCB3
:105A80002046FFF7D3F868A0FDF7F2FC07E00221FB
:105A90002046FEF763FD6BA0FDF7EAFC00BF0DE0BA
:105AA00016F1020F0AD13F4C01212046FEF756FDA8
:105AB0006AA0FDF7DDFC6FF001005DE73948401E8C
:105AC0000078062852D2DFE800F051031425304157
:105AD00000203449491E0870212201F59E71A1F170
